{
  "contractName": "PrivacyCT",
  "abi": [
    {
      "constant": true,
      "inputs": [
        {
          "name": "",
          "type": "uint256"
        }
      ],
      "name": "spentUTXOs",
      "outputs": [
        {
          "name": "",
          "type": "bool"
        }
      ],
      "payable": false,
      "stateMutability": "view",
      "type": "function",
      "signature": "0x132cc539"
    },
    {
      "constant": true,
      "inputs": [
        {
          "name": "",
          "type": "uint256"
        }
      ],
      "name": "utxos",
      "outputs": [
        {
          "components": [
            {
              "name": "yBit",
              "type": "uint8"
            },
            {
              "name": "x",
              "type": "uint256"
            }
          ],
          "name": "commitment",
          "type": "tuple"
        },
        {
          "components": [
            {
              "name": "yBit",
              "type": "uint8"
            },
            {
              "name": "x",
              "type": "uint256"
            }
          ],
          "name": "pubkey",
          "type": "tuple"
        },
        {
          "name": "amount",
          "type": "uint256"
        },
        {
          "components": [
            {
              "name": "yBit",
              "type": "uint8"
            },
            {
              "name": "x",
              "type": "uint256"
            }
          ],
          "name": "txPub",
          "type": "tuple"
        },
        {
          "name": "mask",
          "type": "uint256"
        },
        {
          "name": "isSpent",
          "type": "bool"
        }
      ],
      "payable": false,
      "stateMutability": "view",
      "type": "function",
      "signature": "0x81591387"
    },
    {
      "payable": true,
      "stateMutability": "payable",
      "type": "fallback"
    },
    {
      "anonymous": false,
      "inputs": [
        {
          "indexed": false,
          "name": "_Xs",
          "type": "uint256[3]"
        },
        {
          "indexed": false,
          "name": "_YBits",
          "type": "uint8[3]"
        },
        {
          "indexed": false,
          "name": "_amount",
          "type": "uint256[2]"
        },
        {
          "indexed": false,
          "name": "_index",
          "type": "uint256"
        }
      ],
      "name": "NewUTXO",
      "type": "event",
      "signature": "0xb2e70d6400643c3f76cf27a38f194c16e1b626c8d9151431da826c558b217f77"
    },
    {
      "anonymous": false,
      "inputs": [
        {
          "indexed": false,
          "name": "_inputIDs",
          "type": "uint256[]"
        }
      ],
      "name": "Inputs",
      "type": "event",
      "signature": "0x721c5d38894e07b15bca1c1b2ab98e3ab9392ca6713dcbe2058df2033effffb7"
    },
    {
      "anonymous": false,
      "inputs": [
        {
          "indexed": false,
          "name": "_in1",
          "type": "uint256"
        },
        {
          "indexed": false,
          "name": "_in2",
          "type": "uint256"
        }
      ],
      "name": "InputSum",
      "type": "event",
      "signature": "0xa8d889947852244ecabe6b0070da7ee0008c4907c3e7d92352e21abc88c5978b"
    },
    {
      "anonymous": false,
      "inputs": [
        {
          "indexed": false,
          "name": "_out1",
          "type": "uint256"
        },
        {
          "indexed": false,
          "name": "_out2",
          "type": "uint256"
        }
      ],
      "name": "OutputSum",
      "type": "event",
      "signature": "0xda50982baf7da70892266def5483ae28f4fec298219bc7ce3d21928f84f0349a"
    },
    {
      "anonymous": false,
      "inputs": [
        {
          "indexed": false,
          "name": "_hash",
          "type": "bytes32"
        }
      ],
      "name": "HashSign",
      "type": "event",
      "signature": "0x4bd28903ebb3f08ebecaa0911f3ccd0b6332038f2d09e16c245aa48637e9b862"
    },
    {
      "constant": false,
      "inputs": [
        {
          "name": "_pubkeyX",
          "type": "uint256"
        },
        {
          "name": "_pubkeyY",
          "type": "uint256"
        },
        {
          "name": "_txPubKeyX",
          "type": "uint256"
        },
        {
          "name": "_txPubKeyY",
          "type": "uint256"
        },
        {
          "name": "_mask",
          "type": "uint256"
        },
        {
          "name": "_amount",
          "type": "uint256"
        },
        {
          "name": "_encodedMask",
          "type": "uint256"
        }
      ],
      "name": "deposit",
      "outputs": [],
      "payable": true,
      "stateMutability": "payable",
      "type": "function",
      "signature": "0x12497075"
    },
    {
      "constant": false,
      "inputs": [
        {
          "name": "_inputIDs",
          "type": "uint256[]"
        },
        {
          "name": "_outputs",
          "type": "uint256[]"
        },
        {
          "name": "_amounts",
          "type": "uint256[]"
        }
      ],
      "name": "privateSend",
      "outputs": [],
      "payable": false,
      "stateMutability": "nonpayable",
      "type": "function",
      "signature": "0xda697e28"
    },
    {
      "constant": false,
      "inputs": [
        {
          "name": "_utxoIndex",
          "type": "uint256"
        },
        {
          "name": "_amount1",
          "type": "uint256"
        },
        {
          "name": "_amount2",
          "type": "uint256"
        },
        {
          "name": "_rs",
          "type": "bytes32[2]"
        },
        {
          "name": "recipient",
          "type": "address"
        },
        {
          "name": "_commitmentAfter",
          "type": "uint256[2]"
        }
      ],
      "name": "withdrawFunds",
      "outputs": [],
      "payable": false,
      "stateMutability": "nonpayable",
      "type": "function",
      "signature": "0x1f5bba87"
    },
    {
      "constant": true,
      "inputs": [
        {
          "name": "index",
          "type": "uint256"
        }
      ],
      "name": "getUTXO",
      "outputs": [
        {
          "name": "",
          "type": "uint256[3]"
        },
        {
          "name": "",
          "type": "uint8[3]"
        },
        {
          "name": "",
          "type": "uint256[2]"
        },
        {
          "name": "",
          "type": "bool"
        }
      ],
      "payable": false,
      "stateMutability": "view",
      "type": "function",
      "signature": "0x5da1af3c"
    },
    {
      "constant": false,
      "inputs": [
        {
          "name": "b",
          "type": "bytes32"
        }
      ],
      "name": "bytesToUint",
      "outputs": [
        {
          "name": "",
          "type": "uint256"
        }
      ],
      "payable": false,
      "stateMutability": "nonpayable",
      "type": "function",
      "signature": "0xcfc5a969"
    }
  ],
  "bytecode": "0x608060405273bb32d285e4cf30d439f8106bba926941730fbf1e600a60006101000a81548173ffffffffffffffffffffffffffffffffffffffff021916908373ffffffffffffffffffffffffffffffffffffffff16021790555034801561006557600080fd5b50613e7c806100756000396000f3fe608060405260043610610083576000357c0100000000000000000000000000000000000000000000000000000000900463ffffffff1680631249707514610088578063132cc539146100a45780631f5bba87146100e15780635da1af3c1461010a578063815913871461014a578063cfc5a9691461018c578063da697e28146101c9575b600080fd5b6100a2600480360361009d9190810190613621565b6101f2565b005b3480156100b057600080fd5b506100cb60048036036100c6919081019061356e565b61059a565b6040516100d89190613ace565b60405180910390f35b3480156100ed57600080fd5b5061010860048036036101039190810190613597565b6105ba565b005b34801561011657600080fd5b50610131600480360361012c919081019061356e565b6111a1565b6040516101419493929190613a1e565b60405180910390f35b34801561015657600080fd5b50610171600480360361016c919081019061356e565b611390565b60405161018396959493929190613c04565b60405180910390f35b34801561019857600080fd5b506101b360048036036101ae9190810190613545565b61147b565b6040516101c09190613c67565b60405180910390f35b3480156101d557600080fd5b506101f060048036036101eb91908101906134ae565b611513565b005b6101fa613276565b8781600060028110151561020a57fe5b6020020181815250508681600160028110151561022357fe5b60200201818152505061023688886120b8565b151561024157600080fd5b610249613276565b8681600060028110151561025957fe5b6020020181815250508581600160028110151561027257fe5b60200201818152505061028481612106565b151561028f57600080fd5b60008061029c8734612252565b915091506000806102ac86612394565b915091506000806102bc87612394565b91509150600b60c060405190810160405280604080519081016040528060028b0160ff16815260200189815250815260200160408051908101604052806002890160ff1681526020018781525081526020018c815260200160408051908101604052806002870160ff1681526020018581525081526020018b8152602001600015158152509080600181540180825580915050906001820390600052602060002090600902016000909192909190915060008201518160000160008201518160000160006101000a81548160ff021916908360ff16021790555060208201518160010155505060208201518160020160008201518160000160006101000a81548160ff021916908360ff1602179055506020820151816001015550506040820151816004015560608201518160050160008201518160000160006101000a81548160ff021916908360ff1602179055506020820151816001015550506080820151816007015560a08201518160080160006101000a81548160ff0219169083151502179055505050506000600b6104626001600b805490506123e790919063ffffffff16565b81548110151561046e57fe5b906000526020600020906009020190507fb2e70d6400643c3f76cf27a38f194c16e1b626c8d9151431da826c558b217f77606060405190810160405280836000016001015481526020018360020160010154815260200183600501600101548152506060604051908101604052808460000160000160009054906101000a900460ff1660ff1660ff1681526020018460020160000160009054906101000a900460ff1660ff1660ff1681526020018460050160000160009054906101000a900460ff1660ff1660ff1681525060408051908101604052808560040154815260200185600701548152506105706001600b805490506123e790919063ffffffff16565b6040516105809493929190613a65565b60405180910390a150505050505050505050505050505050565b600c6020528060005260406000206000915054906101000a900460ff1681565b600b80549050861080156105ff575060001515600b878154811015156105dc57fe5b906000526020600020906009020160080160009054906101000a900460ff161515145b151561060a57600080fd5b61062683600060028110151561061c57fe5b602002015161147b565b6008600060028110151561063657fe5b018190555061065783600160028110151561064d57fe5b602002015161147b565b6008600160028110151561066757fe5b01819055506106cc6002600b8881548110151561068057fe5b906000526020600020906009020160020160000160009054906101000a900460ff1603600b888154811015156106b257fe5b906000526020600020906009020160020160010154612409565b600260006002811015156106dc57fe5b016000600260016002811015156106ef57fe5b0160008491905055839190505550506000600b8781548110151561070f57fe5b906000526020600020906009020160000160000160009054906101000a900460ff16600b8881548110151561074057fe5b906000526020600020906009020160000160010154600b8981548110151561076457fe5b906000526020600020906009020160020160000160009054906101000a900460ff16600b8a81548110151561079557fe5b90600052602060002090600902016002016001015486604051602001808660ff1660ff167f01000000000000000000000000000000000000000000000000000000000000000281526001018581526020018460ff1660ff167f01000000000000000000000000000000000000000000000000000000000000000281526001018381526020018273ffffffffffffffffffffffffffffffffffffffff1673ffffffffffffffffffffffffffffffffffffffff166c01000000000000000000000000028152601401955050505050506040516020818303038152906040528051906020012090507f4bd28903ebb3f08ebecaa0911f3ccd0b6332038f2d09e16c245aa48637e9b862816040516108a99190613ae9565b60405180910390a1600073ffffffffffffffffffffffffffffffffffffffff168373ffffffffffffffffffffffffffffffffffffffff1614151515610923576040517f08c379a000000000000000000000000000000000000000000000000000000000815260040161091a90613ba4565b60405180910390fd5b8273ffffffffffffffffffffffffffffffffffffffff166108fc879081150290604051600060405180830381858888f19350505050158015610969573d6000803e3d6000fd5b506001600c600089815260200190815260200160002060006101000a81548160ff0219169083151502179055506001600b888154811015156109a757fe5b906000526020600020906009020160080160006101000a81548160ff021916908315150217905550610a2f6002600b898154811015156109e357fe5b906000526020600020906009020160000160000160009054906101000a900460ff1603600b89815481101515610a1557fe5b906000526020600020906009020160000160010154612409565b60026000600281101515610a3f57fe5b01600060026001600281101515610a5257fe5b0160008491905055839190505550507fa8d889947852244ecabe6b0070da7ee0008c4907c3e7d92352e21abc88c5978b60026000600281101515610a9257fe5b015460026001600281101515610aa457fe5b0154604051610ab4929190613c82565b60405180910390a1610ac5866124a8565b600660006007600084919050558391906101000a81548160ff021916908360ff1602179055505050610b08600660009054906101000a900460ff16600754612409565b600080600281101515610b1757fe5b016000806001600281101515610b2957fe5b0160008491905055839190505550507fda50982baf7da70892266def5483ae28f4fec298219bc7ce3d21928f84f0349a600080600281101515610b6857fe5b015460006001600281101515610b7a57fe5b0154604051610b8a929190613c82565b60405180910390a1610be5600080600281101515610ba457fe5b015460006001600281101515610bb657fe5b0154846000600281101515610bc757fe5b6020020151856001600281101515610bdb57fe5b6020020151612539565b600080600281101515610bf457fe5b016000806001600281101515610c0657fe5b0160008491905055839190505550507fda50982baf7da70892266def5483ae28f4fec298219bc7ce3d21928f84f0349a826000600281101515610c4557fe5b6020020151836001600281101515610c5957fe5b6020020151604051610c6c929190613c82565b60405180910390a17fda50982baf7da70892266def5483ae28f4fec298219bc7ce3d21928f84f0349a600080600281101515610ca457fe5b015460006001600281101515610cb657fe5b0154604051610cc6929190613c82565b60405180910390a160026000600281101515610cde57fe5b0154600080600281101515610cef57fe5b0154148015610d1f575060026001600281101515610d0957fe5b015460006001600281101515610d1b57fe5b0154145b1515610d2a57600080fd5b610d5a826000600281101515610d3c57fe5b6020020151836001600281101515610d5057fe5b6020020151612578565b600660006007600084919050558391906101000a81548160ff021916908360ff1602179055505050600b60c06040519081016040528060408051908101604052806002600660009054906101000a900460ff160160ff168152602001600754815250815260200160408051908101604052806002600b8d815481101515610ddd57fe5b906000526020600020906009020160020160000160009054906101000a900460ff160160ff168152602001600b8c815481101515610e1757fe5b906000526020600020906009020160020160010154815250815260200188815260200160408051908101604052806002600b8d815481101515610e5657fe5b906000526020600020906009020160050160000160009054906101000a900460ff160160ff168152602001600b8c815481101515610e9057fe5b9060005260206000209060090201600501600101548152508152602001600b8a815481101515610ebc57fe5b9060005260206000209060090201600701548152602001600015158152509080600181540180825580915050906001820390600052602060002090600902016000909192909190915060008201518160000160008201518160000160006101000a81548160ff021916908360ff16021790555060208201518160010155505060208201518160020160008201518160000160006101000a81548160ff021916908360ff1602179055506020820151816001015550506040820151816004015560608201518160050160008201518160000160006101000a81548160ff021916908360ff1602179055506020820151816001015550506080820151816007015560a08201518160080160006101000a81548160ff0219169083151502179055505050507fb2e70d6400643c3f76cf27a38f194c16e1b626c8d9151431da826c558b217f77606060405190810160405280600b8a81548110151561101a57fe5b9060005260206000209060090201600001600101548152602001600b8a81548110151561104357fe5b9060005260206000209060090201600201600101548152602001600b8a81548110151561106c57fe5b906000526020600020906009020160050160010154815250606060405190810160405280600b8b81548110151561109f57fe5b906000526020600020906009020160000160000160009054906101000a900460ff1660ff1660ff168152602001600b8b8154811015156110db57fe5b906000526020600020906009020160020160000160009054906101000a900460ff1660ff1660ff168152602001600b8b81548110151561111757fe5b906000526020600020906009020160050160000160009054906101000a900460ff1660ff1660ff168152506040805190810160405280898152602001600b8c81548110151561116257fe5b9060005260206000209060090201600701548152506001600b80549050036040516111909493929190613a65565b60405180910390a150505050505050565b6111a9613298565b6111b16132bb565b6111b9613276565b6000606060405190810160405280600b878154811015156111d657fe5b9060005260206000209060090201600001600101548152602001600b878154811015156111ff57fe5b9060005260206000209060090201600201600101548152602001600b8781548110151561122857fe5b906000526020600020906009020160050160010154815250606060405190810160405280600b8881548110151561125b57fe5b906000526020600020906009020160000160000160009054906101000a900460ff1660ff1660ff168152602001600b8881548110151561129757fe5b906000526020600020906009020160020160000160009054906101000a900460ff1660ff1660ff168152602001600b888154811015156112d357fe5b906000526020600020906009020160050160000160009054906101000a900460ff1660ff1660ff168152506040805190810160405280600b8981548110151561131857fe5b9060005260206000209060090201600401548152602001600b8981548110151561133e57fe5b906000526020600020906009020160070154815250600b8881548110151561136257fe5b906000526020600020906009020160080160009054906101000a900460ff1693509350935093509193509193565b600b8181548110151561139f57fe5b9060005260206000209060090201600091509050806000016040805190810160405290816000820160009054906101000a900460ff1660ff1660ff16815260200160018201548152505090806002016040805190810160405290816000820160009054906101000a900460ff1660ff1660ff16815260200160018201548152505090806004015490806005016040805190810160405290816000820160009054906101000a900460ff1660ff1660ff168152602001600182015481525050908060070154908060080160009054906101000a900460ff16905086565b60008060008090505b602060ff1681101561150957838160208110151561149e57fe5b1a7f0100000000000000000000000000000000000000000000000000000000000000027f0100000000000000000000000000000000000000000000000000000000000000900460ff1660018201602060ff160360080260020a02820191508080600101915050611484565b5080915050919050565b600a8351101515611559576040517f08c379a000000000000000000000000000000000000000000000000000000000815260040161155090613b24565b60405180910390fd5b6000835111151561159f576040517f08c379a000000000000000000000000000000000000000000000000000000000815260040161159690613b04565b60405180910390fd5b6000600683518115156115ae57fe5b061415156115bb57600080fd5b60006004819055505b8251600454101561166257600c6000846004548151811015156115e357fe5b90602001906020020151815260200190815260200160002060009054906101000a900460ff1615151561164b576040517f08c379a000000000000000000000000000000000000000000000000000000000815260040161164290613b84565b60405180910390fd5b6004600081548092919060010191905055506115c4565b6116776006835161259b90919063ffffffff16565b61168c6002835161259b90919063ffffffff16565b14151561169857600080fd5b7f721c5d38894e07b15bca1c1b2ab98e3ab9392ca6713dcbe2058df2033effffb7836040516116c79190613aac565b60405180910390a161175f6002600b8560008151811015156116e557fe5b906020019060200201518154811015156116fb57fe5b906000526020600020906009020160000160000160009054906101000a900460ff1603600b85600081518110151561172f57fe5b9060200190602002015181548110151561174557fe5b906000526020600020906009020160000160010154612409565b6002600060028110151561176f57fe5b0160006002600160028110151561178257fe5b0160008491905055839190505550507fa8d889947852244ecabe6b0070da7ee0008c4907c3e7d92352e21abc88c5978b600260006002811015156117c257fe5b0154600260016002811015156117d457fe5b01546040516117e4929190613c82565b60405180910390a160016004819055505b8251600454101561199857611808613276565b61189a6002600b8660045481518110151561181f57fe5b9060200190602002015181548110151561183557fe5b906000526020600020906009020160000160000160009054906101000a900460ff1603600b8660045481518110151561186a57fe5b9060200190602002015181548110151561188057fe5b9060005260206000209060090201600001600101546125c5565b90506000806118f3600260006002811015156118b257fe5b0154600260016002811015156118c457fe5b01548560006002811015156118d557fe5b60200201518660016002811015156118e957fe5b6020020151612539565b91509150816002600060028110151561190857fe5b0181905550806002600160028110151561191e57fe5b01819055507fa8d889947852244ecabe6b0070da7ee0008c4907c3e7d92352e21abc88c5978b6002600060028110151561195457fe5b01546002600160028110151561196657fe5b0154604051611976929190613c82565b60405180910390a15050506004600081548092919060010191905055506117f5565b8160008151811015156119a757fe5b906020019060200201516000806002811015156119c057fe5b01819055508160018151811015156119d457fe5b90602001906020020151600060016002811015156119ee57fe5b01819055507fda50982baf7da70892266def5483ae28f4fec298219bc7ce3d21928f84f0349a600080600281101515611a2357fe5b015460006001600281101515611a3557fe5b0154604051611a45929190613c82565b60405180910390a160016004819055505b611a6b6006835161259b90919063ffffffff16565b6004541015611bf557600080611adf600080600281101515611a8957fe5b015460006001600281101515611a9b57fe5b015486600260045402815181101515611ab057fe5b9060200190602002015187600160026004540201815181101515611ad057fe5b90602001906020020151612539565b915091507fda50982baf7da70892266def5483ae28f4fec298219bc7ce3d21928f84f0349a84600260045402815181101515611b1757fe5b9060200190602002015185600160026004540201815181101515611b3757fe5b90602001906020020151604051611b4f929190613c82565b60405180910390a181600080600281101515611b6757fe5b01819055508060006001600281101515611b7d57fe5b01819055507fda50982baf7da70892266def5483ae28f4fec298219bc7ce3d21928f84f0349a600080600281101515611bb257fe5b015460006001600281101515611bc457fe5b0154604051611bd4929190613c82565b60405180910390a15050600460008154809291906001019190505550611a56565b60006004819055505b82516004541015611c72576001600b84600454815181101515611c1d57fe5b90602001906020020151815481101515611c3357fe5b906000526020600020906009020160080160006101000a81548160ff021916908315150217905550600460008154809291906001019190505550611bfe565b600080600281101515611c8157fe5b015460026000600281101515611c9357fe5b0154148015611cc3575060006001600281101515611cad57fe5b015460026001600281101515611cbf57fe5b0154145b1515611cce57600080fd5b611ce36006835161259b90919063ffffffff16565b60058190555060006004819055505b60055460045410156120b357600080611d4684600260045402815181101515611d1757fe5b9060200190602002015185600160026004540201815181101515611d3757fe5b90602001906020020151612578565b91509150600080611d9d8660026004540260026005540201815181101515611d6a57fe5b906020019060200201518760016002600454026005540101815181101515611d8e57fe5b90602001906020020151612578565b91509150600080611df78860026004540260046005540201815181101515611dc157fe5b906020019060200201518960016002600454026004600554020101815181101515611de857fe5b90602001906020020151612578565b91509150600b60c060405190810160405280604080519081016040528060028b0160ff16815260200189815250815260200160408051908101604052806002890160ff16815260200187815250815260200189600454815181101515611e5957fe5b90602001906020020151815260200160408051908101604052806002870160ff1681526020018581525081526020018960045460055401815181101515611e9c57fe5b906020019060200201518152602001600015158152509080600181540180825580915050906001820390600052602060002090600902016000909192909190915060008201518160000160008201518160000160006101000a81548160ff021916908360ff16021790555060208201518160010155505060208201518160020160008201518160000160006101000a81548160ff021916908360ff1602179055506020820151816001015550506040820151816004015560608201518160050160008201518160000160006101000a81548160ff021916908360ff1602179055506020820151816001015550506080820151816007015560a08201518160080160006101000a81548160ff0219169083151502179055505050507fb2e70d6400643c3f76cf27a38f194c16e1b626c8d9151431da826c558b217f776060604051908101604052808781526020018581526020018381525060606040519081016040528060028a0160ff1660ff1681526020016002880160ff1660ff1681526020016002860160ff1660ff1681525060408051908101604052808b60045481518110151561204557fe5b9060200190602002015181526020018b6004546005540181518110151561206857fe5b906020019060200201518152506001600b805490500360405161208e9493929190613a65565b60405180910390a1505050505050600460008154809291906001019190505550611cf2565b505050565b60006120c2613276565b838160006002811015156120d257fe5b602002018181525050828160016002811015156120eb57fe5b6020020181815250506120fd81612106565b91505092915050565b6000807ffffffffffffffffffffffffffffffffffffffffffffffffffffffffefffffc2f905082600060028110151561213b57fe5b60200201516000148061216057508083600060028110151561215957fe5b6020020151145b8061217e575082600160028110151561217557fe5b60200201516000145b8061219b57508083600160028110151561219457fe5b6020020151145b156121aa57600091505061224d565b6000818015156121b657fe5b8460016002811015156121c557fe5b60200201518560016002811015156121d957fe5b60200201510990506000828015156121ed57fe5b6007848015156121f957fe5b87600060028110151561220857fe5b60200201518680151561221757fe5b89600060028110151561222657fe5b60200201518a600060028110151561223a57fe5b6020020151090908905080821493505050505b919050565b6000806000806122c6867f79be667ef9dcbbac55a06295ce870b07029bfcdb2dce28d959f2815b16f817987f483ada7726a3c4655da4fbfc0e1108a8fd17b448a68554199c47d08ffb10d4b860007ffffffffffffffffffffffffffffffffffffffffffffffffffffffffefffffc2f612694565b9150915060008061233b877f50929b74c1a04954b78b4b6035e97a5e078a5a0f28ec96d547bfee9ace803ac07f31d3c6863973926e049e637cb1b5f40a36dac28af1766968c30c2313f3a3890460007ffffffffffffffffffffffffffffffffffffffffffffffffffffffffefffffc2f612694565b915091506000806123718686868660007ffffffffffffffffffffffffffffffffffffffffffffffffffffffffefffffc2f6126ce565b9150915061237f8282612578565b80985081995050505050505050509250929050565b6000806002801415156123a357fe5b8260006002811015156123b257fe5b602002015190506001808460016002811015156123cb57fe5b602002015116146123dd5760006123e0565b60015b9150915091565b60008282111515156123f857600080fd5b600082840390508091505092915050565b60008060007ffffffffffffffffffffffffffffffffffffffffffffffffffffffffefffffc2f905060008180151561243d57fe5b60078380151561244957fe5b8480151561245357fe5b888909880908905060006124778260046001860181151561247057fe5b0485612743565b90506000600182168860ff16189050869550600081146124995781840361249b565b815b9450505050509250929050565b60008060008061251c857f50929b74c1a04954b78b4b6035e97a5e078a5a0f28ec96d547bfee9ace803ac07f31d3c6863973926e049e637cb1b5f40a36dac28af1766968c30c2313f3a3890460007ffffffffffffffffffffffffffffffffffffffffffffffffffffffffefffffc2f612694565b9150915061252a8282612578565b80945081955050505050915091565b60008061256b8686868660007ffffffffffffffffffffffffffffffffffffffffffffffffffffffffefffffc2f6126ce565b9150915094509492505050565b60008083905060018084161461258f576000612592565b60015b91509250929050565b600080821115156125ab57600080fd5b600082848115156125b857fe5b0490508091505092915050565b6125cd613276565b60007ffffffffffffffffffffffffffffffffffffffffffffffffffffffffefffffc2f90506000818015156125fe57fe5b60078380151561260a57fe5b8480151561261457fe5b878809870908905060006126388260046001860181151561263157fe5b0485612743565b90506000600182168760ff161890508585600060028110151561265757fe5b6020020181815250506000811461267057818403612672565b815b85600160028110151561268157fe5b6020020181815250505050505092915050565b60008060008060006126ab8a8a8a60018b8b61283e565b9250925092506126bd838383896129f0565b945094505050509550959350505050565b600080600080905060008090506000809050888b1415612707576126f68b8b60018a8a612a53565b809350819450829550505050612725565b6127188b8b60018c8c60018c612c55565b8093508194508295505050505b612731838383896129f0565b94509450505050965096945050505050565b6000808414156127565760009050612837565b60008314156127685760019050612837565b60008214156127ac576040517f08c379a00000000000000000000000000000000000000000000000000000000081526004016127a390613b44565b60405180910390fd5b60006001905060007f800000000000000000000000000000000000000000000000000000000000000090505b600081111561283157838186161515870a85848509099150836002820486161515870a85848509099150836004820486161515870a85848509099150836008820486161515870a858485090991506010810490506127d8565b81925050505b9392505050565b60008060008089905061284f613298565b8981600060038110151561285f57fe5b6020020181815250508881600160038110151561287857fe5b6020020181815250508781600260038110151561289157fe5b6020020181815250506000809050600080905060006001905060008e14156128c65782828297509750975050505050506129e4565b5b6000851415156129d557600060018616141515612933576129268383838760006003811015156128f357fe5b602002015188600160038110151561290757fe5b602002015189600260038110151561291b57fe5b60200201518f612c55565b8093508194508295505050505b60028581151561293f57fe5b04945061298884600060038110151561295457fe5b602002015185600160038110151561296857fe5b602002015186600260038110151561297c57fe5b60200201518d8d612a53565b86600060038110151561299757fe5b602002018760016003811015156129aa57fe5b602002018860026003811015156129bd57fe5b602002018381525083815250838152505050506128c7565b82828297509750975050505050505b96509650969350505050565b60008060006129ff85856131a7565b9050600084801515612a0d57fe5b8283099050600085801515612a1e57fe5b828a099050600086801515612a2f57fe5b87801515612a3957fe5b8486098a0990508181955095505050505094509492505050565b600080600080861415612a6e57878787925092509250612c4a565b612a76613298565b84801515612a8057fe5b898a09816000600381101515612a9257fe5b60200201818152505084801515612aa557fe5b888909816001600381101515612ab757fe5b60200201818152505084801515612aca57fe5b878809816002600381101515612adc57fe5b602002018181525050600085801515612af157fe5b86801515612afb57fe5b836001600381101515612b0a57fe5b60200201518c096004099050600086801515612b2257fe5b87801515612b2c57fe5b88801515612b3657fe5b856002600381101515612b4557fe5b6020020151866002600381101515612b5957fe5b6020020151098a0988801515612b6b57fe5b856000600381101515612b7a57fe5b6020020151600309089050600087801515612b9157fe5b88801515612b9b57fe5b848508890389801515612baa57fe5b848509089050600088801515612bbc57fe5b89801515612bc657fe5b8a801515612bd057fe5b876001600381101515612bdf57fe5b6020020151886001600381101515612bf357fe5b6020020151096008098a038a801515612c0857fe5b8b801515612c1257fe5b858d0388088609089050600089801515612c2857fe5b8a801515612c3257fe5b8d8f0960020990508282829850985098505050505050505b955095509592505050565b6000806000808a148015612c695750600089145b15612c7c5786868692509250925061319a565b600087148015612c8c5750600086145b15612c9f5789898992509250925061319a565b612ca76132de565b84801515612cb157fe5b898a09816000600481101515612cc357fe5b60200201818152505084801515612cd657fe5b816000600481101515612ce557fe5b60200201518a09816001600481101515612cfb57fe5b60200201818152505084801515612d0e57fe5b868709816002600481101515612d2057fe5b60200201818152505084801515612d3357fe5b816002600481101515612d4257fe5b60200201518709816003600481101515612d5857fe5b60200201818152505060806040519081016040528086801515612d7757fe5b836002600481101515612d8657fe5b60200201518e09815260200186801515612d9c57fe5b836003600481101515612dab57fe5b60200201518d09815260200186801515612dc157fe5b836000600481101515612dd057fe5b60200201518b09815260200186801515612de657fe5b836001600481101515612df557fe5b60200201518a098152509050806002600481101515612e1057fe5b6020020151816000600481101515612e2457fe5b60200201511415612ed457806003600481101515612e3e57fe5b6020020151816001600481101515612e5257fe5b6020020151141515612e99576040517f08c379a0000000000000000000000000000000000000000000000000000000008152600401612e9090613be4565b60405180910390fd5b6040517f08c379a0000000000000000000000000000000000000000000000000000000008152600401612ecb90613b64565b60405180910390fd5b612edc6132de565b85801515612ee657fe5b826000600481101515612ef557fe5b60200201518703836002600481101515612f0b57fe5b602002015108816000600481101515612f2057fe5b60200201818152505085801515612f3357fe5b826001600481101515612f4257fe5b60200201518703836003600481101515612f5857fe5b602002015108816001600481101515612f6d57fe5b60200201818152505085801515612f8057fe5b816000600481101515612f8f57fe5b6020020151826000600481101515612fa357fe5b602002015109816002600481101515612fb857fe5b60200201818152505085801515612fcb57fe5b816000600481101515612fda57fe5b6020020151826002600481101515612fee57fe5b60200201510981600360048110151561300357fe5b60200201818152505060008680151561301857fe5b82600360048110151561302757fe5b602002015188038880151561303857fe5b84600160048110151561304757fe5b602002015185600160048110151561305b57fe5b6020020151090890508680151561306e57fe5b8780151561307857fe5b8880151561308257fe5b84600260048110151561309157fe5b60200201518660006004811015156130a557fe5b6020020151096002098803820890506000878015156130c057fe5b888015156130ca57fe5b838a038a8015156130d757fe5b8660026004811015156130e657fe5b60200201518860006004811015156130fa57fe5b6020020151090884600160048110151561311057fe5b60200201510990508780151561312257fe5b8880151561312c57fe5b84600360048110151561313b57fe5b602002015186600160048110151561314f57fe5b60200201510989038208905060008880151561316757fe5b8980151561317157fe5b8b8f0985600060048110151561318357fe5b602002015109905082828297509750975050505050505b9750975097945050505050565b6000808314806131b657508183145b806131c15750600082145b15613201576040517f08c379a00000000000000000000000000000000000000000000000000000000081526004016131f890613bc4565b60405180910390fd5b60008090506000600190506000849050600086905060005b60008214151561326857818381151561322e57fe5b049050838780151561323c57fe5b8880151561324657fe5b8684098903870880955081965050508182820284038093508194505050613219565b849550505050505092915050565b6040805190810160405280600290602082028038833980820191505090505090565b606060405190810160405280600390602082028038833980820191505090505090565b606060405190810160405280600390602082028038833980820191505090505090565b608060405190810160405280600490602082028038833980820191505090505090565b600061330d8235613e1c565b905092915050565b600082601f830112151561332857600080fd5b600261333b61333682613cd8565b613cab565b9150818385602084028201111561335157600080fd5b60005b8381101561338157816133678882613486565b845260208401935060208301925050600181019050613354565b5050505092915050565b600082601f830112151561339e57600080fd5b60026133b16133ac82613cfa565b613cab565b915081838560208402820111156133c757600080fd5b60005b838110156133f757816133dd888261349a565b8452602084019350602083019250506001810190506133ca565b5050505092915050565b600082601f830112151561341457600080fd5b813561342761342282613d1c565b613cab565b9150818183526020840193506020810190508385602084028201111561344c57600080fd5b60005b8381101561347c5781613462888261349a565b84526020840193506020830192505060018101905061344f565b5050505092915050565b60006134928235613e2e565b905092915050565b60006134a68235613e38565b905092915050565b6000806000606084860312156134c357600080fd5b600084013567ffffffffffffffff8111156134dd57600080fd5b6134e986828701613401565b935050602084013567ffffffffffffffff81111561350657600080fd5b61351286828701613401565b925050604084013567ffffffffffffffff81111561352f57600080fd5b61353b86828701613401565b9150509250925092565b60006020828403121561355757600080fd5b600061356584828501613486565b91505092915050565b60006020828403121561358057600080fd5b600061358e8482850161349a565b91505092915050565b60008060008060008061010087890312156135b157600080fd5b60006135bf89828a0161349a565b96505060206135d089828a0161349a565b95505060406135e189828a0161349a565b94505060606135f289828a01613315565b93505060a061360389828a01613301565b92505060c061361489828a0161338b565b9150509295509295509295565b600080600080600080600060e0888a03121561363c57600080fd5b600061364a8a828b0161349a565b975050602061365b8a828b0161349a565b965050604061366c8a828b0161349a565b955050606061367d8a828b0161349a565b945050608061368e8a828b0161349a565b93505060a061369f8a828b0161349a565b92505060c06136b08a828b0161349a565b91505092959891949750929550565b6136c881613d6f565b6136d182613d44565b60005b82811015613703576136e7858351613a00565b6136f082613d9b565b91506020850194506001810190506136d4565b5050505050565b61371381613d7a565b61371c82613d4e565b60005b8281101561374e57613732858351613a00565b61373b82613da8565b915060208501945060018101905061371f565b5050505050565b600061376082613d85565b80845260208401935061377283613d58565b60005b828110156137a457613788868351613a00565b61379182613db5565b9150602086019550600181019050613775565b50849250505092915050565b6137b981613d90565b6137c282613d65565b60005b828110156137f4576137d8858351613a0f565b6137e182613dc2565b91506020850194506001810190506137c5565b5050505050565b61380481613dcf565b82525050565b61381381613ddb565b82525050565b6000600982527f6e6f20696e7075747300000000000000000000000000000000000000000000006020830152604082019050919050565b6000600f82527f746f6f206d616e7920696e7075747300000000000000000000000000000000006020830152604082019050919050565b6000600f82527f4d6f64756c7573206973207a65726f00000000000000000000000000000000006020830152604082019050919050565b6000601282527f55736520646f75626c6520696e737465616400000000000000000000000000006020830152604082019050919050565b6000601382527f696e70757420616c7265616479207370656e74000000000000000000000000006020830152604082019050919050565b6000601a82527f61646472657373206e6f742072656769737465726564207965740000000000006020830152604082019050919050565b6000600e82527f496e76616c6964206e756d6265720000000000000000000000000000000000006020830152604082019050919050565b6000600a82527f57726f6e672064617461000000000000000000000000000000000000000000006020830152604082019050919050565b6040820160008201516139e76000850182613a0f565b5060208201516139fa6020850182613a00565b50505050565b613a0981613e05565b82525050565b613a1881613e0f565b82525050565b600061012082019050613a34600083018761370a565b613a4160608301866137b0565b613a4e60c08301856136bf565b613a5c6101008301846137fb565b95945050505050565b600061012082019050613a7b600083018761370a565b613a8860608301866137b0565b613a9560c08301856136bf565b613aa3610100830184613a00565b95945050505050565b60006020820190508181036000830152613ac68184613755565b905092915050565b6000602082019050613ae360008301846137fb565b92915050565b6000602082019050613afe600083018461380a565b92915050565b60006020820190508181036000830152613b1d81613819565b9050919050565b60006020820190508181036000830152613b3d81613850565b9050919050565b60006020820190508181036000830152613b5d81613887565b9050919050565b60006020820190508181036000830152613b7d816138be565b9050919050565b60006020820190508181036000830152613b9d816138f5565b9050919050565b60006020820190508181036000830152613bbd8161392c565b9050919050565b60006020820190508181036000830152613bdd81613963565b9050919050565b60006020820190508181036000830152613bfd8161399a565b9050919050565b600061012082019050613c1a60008301896139d1565b613c2760408301886139d1565b613c346080830187613a00565b613c4160a08301866139d1565b613c4e60e0830185613a00565b613c5c6101008301846137fb565b979650505050505050565b6000602082019050613c7c6000830184613a00565b92915050565b6000604082019050613c976000830185613a00565b613ca46020830184613a00565b9392505050565b6000604051905081810181811067ffffffffffffffff82111715613cce57600080fd5b8060405250919050565b600067ffffffffffffffff821115613cef57600080fd5b602082029050919050565b600067ffffffffffffffff821115613d1157600080fd5b602082029050919050565b600067ffffffffffffffff821115613d3357600080fd5b602082029050602081019050919050565b6000819050919050565b6000819050919050565b6000602082019050919050565b6000819050919050565b600060029050919050565b600060039050919050565b600081519050919050565b600060039050919050565b6000602082019050919050565b6000602082019050919050565b6000602082019050919050565b6000602082019050919050565b60008115159050919050565b6000819050919050565b600073ffffffffffffffffffffffffffffffffffffffff82169050919050565b6000819050919050565b600060ff82169050919050565b6000613e2782613de5565b9050919050565b6000819050919050565b600081905091905056fea265627a7a723058208635d06025cc38c012a816835a6e1d85721b1aa1ce8656c72f9d98417105ef966c6578706572696d656e74616cf50037",
  "source": "pragma solidity 0.5.0;\npragma experimental ABIEncoderV2;\nimport {Secp256k1} from \"./Secp256k1.sol\";\nimport \"./SafeMath.sol\";\ninterface IRegistryInterface {\n    function getPrivacyAddress(address _normal) external view returns (bytes memory);\n    function getNormalAddress(bytes calldata _privacy) external view returns (address);\n}\ncontract PrivacyCT {\n    using SafeMath for uint256;\n    struct CompressPubKey {\n        uint8 yBit;\n        uint256 x;\n    }\n    uint256[2] outputSum;\n    uint256[2] inputSum;\n    uint i;\n    uint outputLength;\n    uint8 yBit;\n    uint x;\n    uint256[2] temp2;\n    address RegistryContract = 0xbb32d285e4cF30d439F8106bbA926941730fbf1E;\n    struct UTXO {\n        CompressPubKey commitment;\n        CompressPubKey pubkey;\n        uint256 amount; //encoded amount\n        CompressPubKey txPub;\n        uint256 mask;   //encoded mask\n        bool isSpent;\n    }\n    event NewUTXO(uint256[3] _Xs,   //commitmentX, pubkeyX, txPubX\n            uint8[3] _YBits,        //commitmentYBit, pubkeyYBit, _txPubYBit\n            uint256[2] _amount,\n            uint256 _index);\n    UTXO[] public utxos;\n    mapping(uint256 => bool) public spentUTXOs;\n    //mapping(uint256 => bool) public keyImages;\n    //the first step for every one to use private transactions is deposit to the contract\n    function deposit(uint _pubkeyX, uint _pubkeyY, uint _txPubKeyX, uint _txPubKeyY, uint256 _mask, uint256 _amount, uint256 _encodedMask) external payable {\n        uint[2] memory stealth;\n        stealth[0] = _pubkeyX;\n        stealth[1] = _pubkeyY;\n        require(Secp256k1.onCurveXY(_pubkeyX, _pubkeyY));\n        uint[2] memory txPub;\n        txPub[0] = _txPubKeyX;\n        txPub[1] = _txPubKeyY;\n        require(Secp256k1.onCurve(txPub));\n        (uint8 _ybitComitment, uint xCommitment) = Secp256k1.pedersenCommitment(_mask, msg.value);\n        (uint8 pybit, uint px) = Secp256k1.compress(stealth);\n        (uint8 txybit, uint txx) = Secp256k1.compress(txPub);\n        utxos.push(UTXO ({\n            commitment: CompressPubKey(_ybitComitment + 2, xCommitment),\n            pubkey: CompressPubKey(pybit + 2, px),\n            amount: _amount,\n            txPub: CompressPubKey(txybit + 2, txx),\n            mask: _encodedMask,\n            isSpent: false\n        })\n        );\n        UTXO storage lastUTXO = utxos[utxos.length.sub(1)];\n        emit NewUTXO([lastUTXO.commitment.x, lastUTXO.pubkey.x, lastUTXO.txPub.x],\n                    [lastUTXO.commitment.yBit, lastUTXO.pubkey.yBit, lastUTXO.txPub.yBit],\n                    [lastUTXO.amount, lastUTXO.mask],\n                    utxos.length.sub(1));\n    }\n    event Inputs(uint256[] _inputIDs);\n    //function privateSend only contain the proof\n    //The proof contains pretty much stuffs\n    //Ring size rs: 1 byte => proof[0]\n    //num input: number of real inputs: 1 byte => proof[1]\n    //List of inputs/UTXO index typed uint64 => total size = rs * numInput * 8 = proof[0]*proof[1]*8\n    //List of key images: total size = numInput * 33 = proof[1] * 33\n    //number of output n: 1 byte\n    //List of output => n * 130 bytes\n    //transaction fee: uint256 => 32 byte\n    //ringCT proof size ctSize: uint16 => 2 byte\n    //ringCT proof: ctSize bytes\n    //bulletproofs: bp\n    function privateSend(uint256[] memory _inputIDs,\n                        uint256[] memory _outputs, //1/3 for commitments, 1/3 for stealths,, 1/3 for txpubs\n                        uint256[] memory _amounts //1/2 for encryptd amounts, 1/2 for masks\n                        ) public {\n        //call precombiled to verify proof\n        require(_inputIDs.length < 10, \"too many inputs\");\n        require(_inputIDs.length > 0, \"no inputs\");\n        require(_outputs.length % 6 == 0);\n        for(i = 0; i < _inputIDs.length; i++) {\n            require(!spentUTXOs[_inputIDs[i]], \"input already spent\");\n        }\n        require(_amounts.length.div(2) == _outputs.length.div(6));\n        emit Inputs(_inputIDs);\n        //compute sum of input\n        (inputSum[0], inputSum[1]) = Secp256k1.decompressXY(utxos[_inputIDs[0]].commitment.yBit - 2, utxos[_inputIDs[0]].commitment.x);\n        emit InputSum(inputSum[0], inputSum[1]);\n        for (i = 1; i < _inputIDs.length; i++) {\n            uint256[2] memory point = Secp256k1.decompress(utxos[_inputIDs[i]].commitment.yBit - 2, utxos[_inputIDs[i]].commitment.x);\n            (uint256 _x, uint256 _y) = Secp256k1.add(inputSum[0], inputSum[1], point[0], point[1]);\n            inputSum[0] = _x;\n            inputSum[1] = _y;\n            emit InputSum(inputSum[0], inputSum[1]);\n        }\n        //compute sum of outputs\n        outputSum[0] = _outputs[0];\n        outputSum[1] = _outputs[1];\n        emit OutputSum(outputSum[0], outputSum[1]);\n        for (i = 1; i < _outputs.length.div(6); i++) {\n            (uint256 _x, uint256 _y) = Secp256k1.add(outputSum[0], outputSum[1], _outputs[i*2], _outputs[i*2+1]);\n            emit OutputSum(_outputs[i*2], _outputs[i*2+1]);\n            outputSum[0] = _x;\n            outputSum[1] = _y;\n            emit OutputSum(outputSum[0], outputSum[1]);\n        }\n\n        for(i = 0; i < _inputIDs.length; i++) {\n            utxos[_inputIDs[i]].isSpent = true;\n        }\n        \n        require(inputSum[0] == outputSum[0] && inputSum[1] == outputSum[1]);\n        //create output UTXOs\n        outputLength = _outputs.length.div(6);\n        for (i = 0; i < outputLength; i++) {\n            (uint8 yBit, uint256 x) = Secp256k1.compressXY(_outputs[i * 2], _outputs[i * 2 + 1]);\n            (uint8 yBitPub, uint256 xPub) = Secp256k1.compressXY(_outputs[outputLength*2 + i*2], _outputs[outputLength + i*2 + 1]);\n            (uint8 yBitTxPub, uint256 xTxPub) = Secp256k1.compressXY(_outputs[outputLength*4 + i*2], _outputs[outputLength*4 + i*2 + 1]);\n            utxos.push(UTXO ({\n                commitment: CompressPubKey(yBit + 2, x),\n                pubkey: CompressPubKey(yBitPub + 2, xPub),\n                amount: _amounts[i],\n                txPub: CompressPubKey(yBitTxPub + 2, xTxPub),\n                mask: _amounts[outputLength + i],\n                isSpent: false\n            })\n            );\n            emit NewUTXO([x, xPub, xTxPub],\n                [yBit + 2, yBitPub + 2, yBitTxPub + 2],\n                [_amounts[i], _amounts[outputLength + i]],\n                utxos.length - 1);\n        }\n    }\n    \n    event InputSum(uint256 _in1, uint256 _in2);\n    event OutputSum(uint256 _out1, uint256 _out2);\n    event HashSign(bytes32 _hash);\n    //function withdrawFunds only contain the proof and the desired amount\n    //The proof contains pretty much stuffs\n    //Ring size rs: 1 byte => proof[0]\n    //num input: number of real inputs: 1 byte => proof[1]\n    //List of inputs/UTXO index typed uint64 => total size = rs * numInput * 8 = proof[0]*proof[1]*8\n    //List of key images: total size = numInput * 33 = proof[1] * 33\n    //number of output n: 1 byte\n    //List of output => n * 130 bytes\n    //transaction fee: uint256 => 32 byte\n    //ringCT proof size ctSize: uint16 => 2 byte\n    //ringCT proof: ctSize bytes\n    //ringCT is created between the inputs and a virtual output (that has commitment to zero) that sends funds to the recipient\n    //since the funds in the output is exposed, no bp rangeproof is needed\n    function withdrawFunds(uint _utxoIndex,\n                        uint256 _amount1, uint256 _amount2,\n                        bytes32[2] memory _rs, address payable recipient,\n                        uint256[2] memory _commitmentAfter) public {\n        //call precombiled to verify proof\n        require(_utxoIndex < utxos.length && utxos[_utxoIndex].isSpent == false);\n        temp2[0] = bytesToUint(_rs[0]);\n        temp2[1] = bytesToUint(_rs[1]);\n        (inputSum[0], inputSum[1]) = Secp256k1.decompressXY(utxos[_utxoIndex].pubkey.yBit - 2, utxos[_utxoIndex].pubkey.x);\n        bytes32 hash = keccak256(abi.encodePacked(utxos[_utxoIndex].commitment.yBit,\n                        utxos[_utxoIndex].commitment.x,\n                        utxos[_utxoIndex].pubkey.yBit,\n                        utxos[_utxoIndex].pubkey.x,\n                        recipient));\n        emit HashSign(hash);\n        //require(Secp256k1.validateSignature(hash, temp2, inputSum), \"signature is not valid\");\n        //send money to recipient\n        require(recipient != address(0x0), \"address not registered yet\");\n        recipient.transfer(_amount1);\n        spentUTXOs[_utxoIndex] = true;\n        utxos[_utxoIndex].isSpent = true;\n        (inputSum[0], inputSum[1]) = Secp256k1.decompressXY(utxos[_utxoIndex].commitment.yBit - 2, utxos[_utxoIndex].commitment.x);\n        emit InputSum(inputSum[0], inputSum[1]);\n        (yBit, x) = Secp256k1.mulWithH(_amount1);\n        (outputSum[0], outputSum[1]) = Secp256k1.decompressXY(yBit, x);\n        emit OutputSum(outputSum[0], outputSum[1]);\n        (outputSum[0], outputSum[1]) = Secp256k1.add(outputSum[0], outputSum[1], _commitmentAfter[0], _commitmentAfter[1]);\n        emit OutputSum(_commitmentAfter[0], _commitmentAfter[1]);\n        emit OutputSum(outputSum[0], outputSum[1]);\n        require(outputSum[0] == inputSum[0] && outputSum[1] == inputSum[1]);\n        (yBit, x) = Secp256k1.compressXY(_commitmentAfter[0], _commitmentAfter[1]);\n        utxos.push(UTXO({\n            commitment: CompressPubKey(yBit + 2, x),\n            pubkey: CompressPubKey(utxos[_utxoIndex].pubkey.yBit + 2, utxos[_utxoIndex].pubkey.x),\n            amount: _amount1,\n            txPub: CompressPubKey(utxos[_utxoIndex].txPub.yBit + 2, utxos[_utxoIndex].txPub.x),\n            mask: utxos[_utxoIndex].mask,\n            isSpent: false\n        }));\n        emit NewUTXO([utxos[_utxoIndex].commitment.x, utxos[_utxoIndex].pubkey.x, utxos[_utxoIndex].txPub.x],\n            [utxos[_utxoIndex].commitment.yBit, utxos[_utxoIndex].pubkey.yBit, utxos[_utxoIndex].txPub.yBit],\n            [_amount2, utxos[_utxoIndex].mask],\n            utxos.length - 1);\n    }\n    function storeTxData(byte[] memory proof, bool parseOutput) private {\n        uint8 rs = uint8(proof[0]);\n        uint8 numInput = uint8(proof[1]);\n        uint64 cursor = 2 + rs * numInput * 8;\n        bytes memory ki = new bytes(33);\n        for(uint8 i = 0; i < numInput; i++) {\n            for(uint8 j = 0; j < 33; i++) {\n                ki[j] = proof[cursor + i*33 + j];\n            }\n            //keyImages[uint256(keccak256(ki))] = true;\n        }\n        //Store UTXOs\n        /*cursor += numInput * 33;\n        uint8 numOut = uint8(proof[cursor++]);\n        for(i = 0; i < numOut; i++) {\n            UTXO memory utxo;\n            for(j = 0; j < 33; i++) {\n                utxo.commitment[j] = proof[cursor + i*130 + j];\n            }\n            for(j = 0; j < 33; i++) {\n                utxo.pubkey[j] = proof[cursor + i*130 + 33 + j];\n            }\n            for(j = 0; j < 32; i++) {\n                utxo.amount[j] = proof[cursor + i*130 + 33 + 33 + j];\n            }\n            for(j = 0; j < 32; i++) {\n                utxo.mask[j] = proof[cursor + i*130 + 33 + 33 + 32 + j];\n            }\n            utxos.push(utxo);\n        }*/\n    }\n    function verifyProof(byte[] memory proof) private returns (bool) {\n        return true;\n    }\n    function verifyWithdrawal(byte[] memory proof, uint256 _amount) private returns (bool) {\n        return true;\n    }\n    function getUTXO(uint256 index) public view returns (uint256[3] memory,\n                                                        uint8[3] memory,\n                                                        uint256[2] memory, //0. encrypted amount, 1. encrypted mask\n                                                        bool) {\n        return (\n            [utxos[index].commitment.x, utxos[index].pubkey.x, utxos[index].txPub.x],\n            [utxos[index].commitment.yBit, utxos[index].pubkey.yBit, utxos[index].txPub.yBit],  \n            [utxos[index].amount,utxos[index].mask], \n            utxos[index].isSpent);\n    }\n    //dont receive any money via default callback\n    function () external payable {\n        revert();\n    }\n    function bytesToUint(bytes32 b) public returns (uint256){\n    uint256 number;\n        for(uint i = 0;i < b.length; i++){\n            number = number + (2**(8*(b.length-(i+1))))*uint256(uint8(b[i]));\n        }\n    return number;\n    }\n}",
  "sourcePath": "/home/anhnt/projects/go/src/github.com/ethereum/privacy-contracts/contracts/PrivacyCT.sol",
  "compiler": {
    "name": "solc",
    "version": "0.5.0+commit.1d4f565a.Emscripten.clang"
  },
  "schemaVersion": "3.0.2",
  "updatedAt": "2019-10-03T03:38:58.724Z",
  "devdoc": {
    "methods": {}
  },
  "userdoc": {
    "methods": {}
  }
}